S0130000717569636B5F73746172742E7372656367
S214000000302B0020A18D00009D8D00009D8D0000EE
S21400001000000000000000000000000000000000DB
S2140000200000000000000000000000009D8D0000A1
S21400003000000000000000009D8D00009D8D000067
S2140000409D8D00009D8D00009D8D00009D8D000003
S214000050757500009D8D00009D8D00009D8D000033
S2140000609D8D00007D7B00008D7B00009D7B000049
S214000070AD7B0000BD7B0000CD7B0000D9460000B4
S214000080E9460000F94600009D8D00009D8D0000A9
S2140000909D8D00009D8D00009D8D0000C1330000E9
S2140000A09D8D00009D8D00009D8D00009D8D0000A3
S2140000B010B5064C2378002B07D1054B002B02D039
S2140000C0044800E000BF0123237010BDC8000020D4
S2140000D0000000000428010008B5084B002B03D0E0
S2140000E00748084900E000BF07480368002B00D116
S2140000F008BD064B002BFBD09847F9E70000000030
S21400010004280100CC0000200428010000000000A4
S214000110F8B5041C0E1C151C4122815C01230B4300
S21400012083541748311C174B984700202056AAB214
S214000130311C0023144DA847002808DB4123E35C4C
S214000140DB0719D5E36E0020022B18D905E0412203
S214000150A35C01218B43A35411E00C4F0C4E4125A8
S2140001600020B847606DB047635DDB0706D5E36ED9
S214000170022BF5D8002002E0002000E00020F8BDA9
S21400018008E30000F5900000F97100003158000007
S214000190A91300005023038000238370FA22D200A4
S2140001A002814360C3600133FF3303616E3B4361EA
S2140001B0014B83617047C04638E3000038B500281D
S2140001C038D0002939D00B69002B39D04B68002B6A
S2140001D039D04B69912B39D90D1C041C002194226F
S2140001E052001F4B9847201C5030291C1C221D4BC8
S2140001F09847E36D002B0AD128691B4B9847E065AA
S214000200002826D04122A15C04230B43A3542B894B
S214000210002B08D068681549221C0023144DA847F7
S214000220A064002818DB0023E3668C225200A3504B
S214000230002013E01620404210E0162040420DE059
S214000240162040420AE01620404207E016204042B0
S21400025004E00C20404201E01C20404238BDC0466D
S214000260E1C00000A7C0000069C000008D030000C8
S21400027031130000002802D0C164002001E01620DF
S21400028040427047F0B585B0041C0E1C80235B000E
S214000290C358002B03D08222520080589847201C57
S2140002A0F03000211822184B9847E36E002B03D03D
S2140002B000202056154B98470023E3569B00002548
S2140002C0134A9D50201C6C300021AC220E4FB847BC
S2140002D0201C1930FF3000211022B847E5668C2319
S2140002E05B00E5504122A35C01218B4301318B4327
S2140002F0A3540196E36C002B03D0201C023101AA04
S214000300984705B0F0BDC046E1C000003973000054
S214000310E4000020F0B587B000900191174C251C32
S2140003201C35174E2768002F23D0791C0098B0473D
S21400033000281ED1FB6E012B1BD1019B002B05D183
S214000340381C762149420F4B984715E0022302AA33
S21400035013804E33FB5A1A021B0A134302AA538019
S214000360019B039300203856111C1022064B984719
S21400037002E00434AC42D5D107B0F0BDE400002062
S21400038031CA0000850200006171000008B5002A2D
S21400039004D0101C3E214942014B984708BDC04678
S2140003A085020000F0B557464E464546E0B494B088
S2140003B002AF041CE94610230822BA18D018E249F6
S2140003C01022E24B9847626ED31DDB08DB006946BD
S2140003D0CB1A9D4602AE002C00D171E24123E35CAD
S2140003E0DB0700D56CE2E36E032B03D0042B00D1B1
S2140003F042E163E2002386214900635004316350E2
S21400040000942C330939FF397918C818311CD04BA1
S214000410D04DA84784235B00E35C012B08D12B3327
S2140004200822BA18D018CC490422CC4B984735E09D
S214000430022B08D12A330822BA18D018C849052238
S214000440C64B98472AE0032B08D129330822BA184E
S214000450D018C4490722C14B98471FE0042B08D187
S21400046028330822BA18D018BF490422BB4B984735
S21400047014E0052B08D127330822BA18D018BB4938
S2140004800822B64B984709E0062B07D126330822E8
S214000490BA18D018B6490522B04B9847251C7035B7
S2140004A0281CB44B9A469847021C2C23082179181E
S2140004B0C818291CA94B984698472C230822BA1816
S2140004C0D018AD490B22C0472C230822BA18D018E2
S2140004D0AA490C22C047A56E281CD047021C2C2314
S2140004E008217918C818291CC0472C230822BA18D6
S2140004F0D018A3490222C0472C230822BA18D018C5
S214000500A0490622C047651C281CD047021C2C2385
S21400051008217918C818291CC0472C230822BA18A5
S214000520D01897490222C0472C230822BA18D018A0
S21400053095491822C0472C230822BA18D018934988
S2140005400E22C047EF3592486B689847786090480F
S2140005506B689847D047021C2C2308218C46BC4465
S2140005606344181C7968C0472C230822BA18D01890
S21400057083490222C0472C230822BA18D01885497E
S2140005801322C0472C230822BA18D01882491722F3
S214000590C047EB68002B49D0F023E35C002B0DD05E
S2140005A00122524286235B00E250E03B0932BA1831
S2140005B0D0187A491C22694B984737E0231CF03341
S2140005C09B68002B32D0221CF03250699847021CE0
S2140005D086235B00E050002802DA0022E25025E085
S2140005E0202308217918C8186D496E4B98472C238C
S2140005F00822BA18D0186C491022584DA847202354
S2140006000822BA18D0185B4B9847021C2C230821E6
S2140006107918C8180C3B08217918C918A8472C2344
S2140006200822BA18D01856490222A8478A235B0027
S214000630E558002D0AD0281C4E4B9847021C2C2348
S21400064008217918C818291C444B98477B6C7B6096
S2140006505648191C564B98472C230822BA18D0180F
S214000660474902223D4B98472C230822BA18D01837
S214000670504B98470423E36686235B00E258002A23
S21400068000DBB7E0231CF033DD68002D00D10BE162
S2140006905869711D636EDA1F88235B00E358A8470C
S2140006A0051CC343DB171D400A2232710D21F17071
S2140006B0731959719A71EB17190F6A180F231340A3
S2140006C05B1A102208218C46BC446244D35CB3708B
S2140006D0B11C0F2D11DD711CEB171B0F5B191A11C6
S2140006E0DB171B0FD2180F200240D31A1022073830
S2140006F08446BC446244D35C7370FF2D11DDEB1757
S2140007001B0E5B191A12DB171B0FD2180F210A409B
S214000710D31A102207398C46BC446244D35C33702B
S214000720311C002020562A1DCB1C9B1BD21892B2CF
S2140007300023214EB047002842DA201C05214942FA
S2140007401E4B9847BCE0C046F8E20000A7C0000079
S21400075011010000E511000044E300003112000022
S2140007604CE3000054E300005CE3000064E3000098
S21400077070E30000E5CD000078E3000084E30000AD
S214000780E01A010094E300009CE30000B8E30000D8
S214000790801D0100C8E30000DCE30000F4E3000075
S2140007A014E4000001C9000018E400002CE4000076
S2140007B0F5900000F5110000F971000085020000B8
S2140007C088225200A3585B19A350002D76D18023AF
S2140007D05B00E358002B02D00C3AA058984702233F
S2140007E0E366E36C002B69D0201C01210C22BA18AA
S2140007F0984763E0002A57DD231CF033DD68002DA0
S21400080052D088235B00E3589A4213DC80235B00B7
S214000810E358002B03D082225200A05898470223A8
S214000820E366E36C002B49D0201C01210C22BA1889
S214000830984743E0221CF0325069311C626EA8478C
S214000840002809DA02D00521494201E04D2149423B
S214000850201C1F4B984731E086235B00E358882214
S2140008605200A2589B1A051E9D4200DD1D1C002347
S21400087073551848311C2A1C174B984700202056E1
S214000880AAB2311C0023154EB047002805DA201CFA
S214000890052149420E4B984712E088235B00E25838
S2140008A094466544E55009E00223E366E36C002BBA
S2140008B004D0201C01210C22BA189847CD4600E02F
S2140008C0CD46BD4612B01CBC90469946A246F0BD29
S2140008D08502000044E40000F5900000F971000075
S2140008E0F0B5474680B488B0041C0E1C90460293B0
S2140008F0002800D1D7E0C36E022B00D9D6E0081C32
S21400090082490722824B98470727002807D0301CC9
S214000910804908227E4B984741424141CF00F51955
S214000920631C0193181C7C4B9847021C0198291CD9
S214000930774B984703902B78002B0ED02F2B0ED09A
S214000940791C711800220132A3540D1C0B78002B61
S21400095006D001312F2BF6D102E0002200E0002263
S214000960A218002353706378002B00D1A1E0281C46
S214000970694B98477F2800D99EE08A235B00E058A1
S214000980002801D0654B98470E9B002B08D0181CFA
S214000990634B98478A235B00E050002804D18EE022
S2140009A000228A235B00E2504122A35C01218B4394
S2140009B0A354002363642B782F2B05D1201C7030A2
S2140009C0291C584B98470AE02F227023E2542B78B4
S2140009D0002B04D0201C7130291C524B9847029BD8
S2140009E0002B06D0201CF030191C18224E4B9847BE
S2140009F005E0201CF030002118224C4B9847842339
S214000A005B004246E254E36E012B04D0002B15D067
S214000A10022B05D056E00020039B002B0AD170E085
S214000A20039B002B06D10333E366201C404B9847FC
S214000A30002066E0201C00213E4B98475223E25CD3
S214000A40531E9A41D2B2022001213B4B9847207098
S214000A5000283ADB8000394BC450019D0021202637
S214000A600120302717E00135131CB343413B052B0B
S214000A700CD93A2A0CD02F2A0CD02E2A02D10029C3
S214000A8009D03AE03A40302A05D036E0011C02E0B0
S214000A90011C00E0011C2A78002AE4D118E001239A
S214000AA0E36600202DE0162040422AE01020404257
S214000AB027E01620404224E05B20404221E00C2044
S214000AC040421EE00B2040421BE01C20404218E043
S214000AD0022304AA13804E33E35A1A021B0A134356
S214000AE004AA53800198164B98470590002020567C
S214000AF004A91022134B9847D1E70198124B984748
S214000B00CDE708B004BC9046F0BDC0465CE40000EB
S214000B10F3CD000064E40000E5CD00007DC00000D9
S214000B2055CA000045CA0000A7C00000E1C000008A
S214000B30A503000085020000A16F0000E40000206D
S214000B40B5730000617100002174000010B5002824
S214000B5012D0031C446C026E944204D38B2149428B
S214000B60064B984708E000201856D96D0919121B45
S214000B7092B20023024CA04710BDC046850200007A
S214000B809572000038B5C36D426C541A1C19002CBF
S214000B9006DD051C181C221C034B98476C6401E0FC
S214000BA00023436438BDC046B9C00000F0B54F46C8
S214000BB080B484B0071CC46D674B9946201C6749F7
S214000BC0C847051E05D0FB6D7A6C94466344984270
S214000BD005D3381C211C624B98470026B6E0201C23
S214000BE05E4902225F4B9847002830D1A11C381C72
S214000BF05B4B9847FB6C002B23D092225200B95ACD
S214000C0000291ED0083AB85800280CDA01AA11802C
S214000C100121917000219020400039509160381CCD
S214000C20023198470DE03A6E90420ADD01AA118023
S214000C30506000219160902040003950381C0231ED
S214000C40984701228C235B00FA5001267EE0201C88
S214000C5045491022434B9847002807D1201C1030E6
S214000C60424B98478E235B00F8506DE0201C4049AD
S214000C7013223C4B9847061E1DD1221C1332954268
S214000C8015D861E01378202B03D10132AA42F9D19E
S214000C905AE020229343432B03D1213AC933FA501A
S214000CA052E0381C86214942324B98474EE0E37C9E
S214000CB0202BEED1E9E7201C2F490C22294B984720
S214000CC000281FD1221C0C32954217D83CE013781E
S214000CD0202B03D10132AA42F9D135E020229343DA
S214000CE04B2B05D12132B95C02230B43BB542BE0BE
S214000CF04122BB5C02218B43BB5425E0237B202B87
S214000D00ECD1E7E7201C1D490522164B9847002822
S214000D101AD1201C0930154B984792235B00F852D5
S214000D200022083BFA506379312B02D8E379302B46
S214000D3005D94122B95C02230B43BB5404E041228F
S214000D40BB5C02218B43BB54AC1C37E7301C04B0A1
S214000D5004BC9146F0BDC04643CE0000E01A010038
S214000D60850B0000F3CD000018E4000005C000006D
S214000D7070E400008502000084E4000094E40000B3
S214000D80F0B54F464646C0B487B0041CC56D8E23EA
S214000D905B00C358002B6CDB026E93422EDC0020F7
S214000DA0626C934200DD00E1E66C002E0DD09222CC
S214000DB05200A15A002908D003AA11800021917080
S214000DC053609560201C0231B04700238C225200ED
S214000DD0A3500C32A3524133E35C9B0705D4201C7E
S214000DE00021744B98470020DFE08E235B00E1581B
S214000DF06918201C704B9847606CD6E0426C0392D2
S214000E0004959021490040588446624462509342BB
S214000E100DDC00238C225200A3500C32A352243A3D
S214000E20FF3A03AB1A72E36C002B06D10DE00022EA
S214000E3003AB1A72E36C002B14D003AE201C032104
S214000E40321C9847337A012B0CD14123E35C9B0775
S214000E5008D45A485A4B9847201C0021554B9847AF
S214000E600020A2E0636CE918201C534B9847002032
S214000E709BE0476C00239946902676004E4B98469A
S214000E80A359002B38DB1ED18C225200A3500C3203
S214000E90A352243AFF3A69460A7200930193E36C20
S214000EA0002B03D0201C03216A4698474123E35CAD
S214000EB09B0704D4201C00213E4B98476CE0A91CDD
S214000EC0201CC04762E0BB4260DC00930195002313
S214000ED06A461372E36C002B02D0201C032198474D
S214000EE0A359991C6918201C334B9847676CE56D0D
S214000EF001235B42A35149E00023A351002F33DDB9
S214000F002B780A2B03D005E02B780A2B02D101356B
S214000F10013F29E04A46002A21D11A1C303A092A04
S214000F2005D8A2591201D318303BA35117E01A1C5A
S214000F30613A052A05D8A2591201D318613BA3517C
S214000F400DE01A1C413A052A05D8A2591201D318F9
S214000F50413BA35103E03B3B5A425A41914601357F
S214000F60013F002FD0D119E0A359226E934205DD30
S214000F70201C8B2149420F4B98470DE0002F05D1CE
S214000F800122524290235B00E25005E0636C002B86
S214000F9000D075E7002008E0002006E090235B0004
S214000FA0E358226E9342EBDDE2E707B00CBC9046B6
S214000FB09946F0BD85020000850B000080E3000026
S214000FC0F590000008B58C235B00C358002B02D0B8
S214000FD0012B03D005E0044B984703E0034B9847EA
S214000FE000E0002008BDC046AD0B0000810D0000EB
S214000FF038B5041C436C9C46614441645823C35A6C
S214001000002B03D0406DA16C034B9847034D201C6A
S214001010A8470028FBD138BD99130000C50F000073
S21400102010B584B08000664BC458002C00D1C5E0D3
S214001030062950D0072900D18BE0052900D0BDE055
S214001040527853B20193002B2FDA0E32D1B20E290A
S2140010501ED88A005B498A5897460221494220E0FA
S214001060702149421DE00C2149421AE016214942EE
S21400107017E00C21494214E07921494211E0682129
S21400108049420EE00B2149420BE01021494208E09C
S214001090002B04DB002104E00521494201E0052184
S2140010A04942201C484B984788E0E36C002B03D04D
S2140010B0201C002101AA98470323E3665533E25A11
S2140010C0606DA16C414B9847201C414B9847201CF3
S2140010D0404B984772E091880BB2002B04DD191C38
S2140010E0201C3D4B984730E00B1C0E339AB20E2A5C
S2140010F01ED89300394AD3589F460221494221E020
S214001100702149421EE00C2149421BE0162149424B
S21400111018E00C21494215E07921494212E0682185
S21400112049420FE00B2149420CE01021494209E0F8
S21400113009B2002904DB002104E00521494201E050
S21400114005214942201C204B9847201C204B9847DD
S21400115034E013881AB2002A28DA0E339AB20D2A1F
S2140011601ED893001E4AD3589F460221494219E0D2
S2140011707021494216E00C21494213E016214942EB
S21400118010E00C2149420DE0792149420AE068212D
S214001190494207E00B21494204E01021494201E0A0
S2140011A005214942201C084B984702E0201C094BA9
S2140011B098474122A35C01218B43A35404B010BD81
S2140011C0E400002048E200008502000069130000E9
S2140011D04D0B0000A5030000F10F000084E20000A4
S2140011E0C0E2000002600161002242608360009B52
S2140011F0C360704710B54268002A06D0041CC06859
S2140012002169A36898470023636010BD38B5041CA5
S2140012100D1C036842689B1A002B01DC034B9847A1
S21400122022696368591C6160D55438BDF511000009
S214001230F8B5061C0D1C141E08D0054F0021695673
S214001240301CB847013C0135002CF7D1F8BDC0462C
S2140012500D120000024A1368013313607047C0463F
S214001260000100206423438000230370437070470E
S214001270F0B5474680B4ACB00D1C6E461D4B6A46B2
S21400128092CB92C26B8843651430041C171C2B78D3
S2140012909B009959101C184B98470020174B9847ED
S2140012A0174B1B7ADBB2D84080466988FA200002CA
S2140012B0144B9847011C4046134B9847786005230B
S2140012C0FB722B789B009959201C3A1C0F4B9847B1
S2140012D06A780832D2B2201C0D490E4B98476978BE
S2140012E00831C9B2201C0C4B98472CB004BC904661
S2140012F0F0BDC0469CE40000C54000002D8B0000F9
S21400130000040040959D0000759C000011420000FE
S214001310551200003946000051460000426902217D
S21400132093681942FCD1116802230B43136070477F
S21400133010B50478E40711D4041C4160017802203B
S21400134081432170A260181C616D064B9847E060CF
S2140013502278012313432370002001E0012040423D
S21400136010BDC046759C000070B5031C8C00651847
S214001370AD002E5C02203043E8545C19101C596DF9
S214001380034B9847034B1B68C018206170BDC046CE
S214001390759C0000000100208B00591889000B5C2A
S2140013A0022293430B54704738B50378DB0724D5E5
S2140013B003789B0721D5114B1B680269D31A1CD5ED
S2140013C003785B0719D4041C0278042313430370C4
S2140013D00021A268E3686568A847E368002B04D08C
S2140013E0064A1268D318236103E023780222934347
S2140013F02370237804229343237038BD0001002015
S214001400F0B583B00C1C2C280CD004D8092856D074
S2140014102B284DD080E0462877D0472879D036282C
S2140014207AD125E00B78012B05D13C483C4B9847F8
S2140014303C4B984770E0002B6ED13B4B1B78002B43
S21400144007D00022384B1A703848354CA047384829
S214001450A047384C201C384B9847C1B26223E25C48
S214001460231C2133FF200090201C344CA04753E05F
S21400147001222D4B1A7009786278A378E0780090E4
S2140014802F48274DA8472F480023036043608360FA
S214001490C360036143618361C3610362227863783A
S2140014A0A1780091E17801912749284CA04733E0C4
S2140014B027481B4B984700221B4B1A702CE02548E8
S2140014C0174B98476323E35C002B1AD1194D281C51
S2140014D0211C214FB847281C291C204B9847622303
S2140014E0E25CEA54261C2136281C2130311CB84701
S2140014F01B48211C321C0A4B98470022194B1A70B5
S2140015000AE01948064B984706E01848044B9847E7
S21400151002E01748024B984703B0F0BDB8E400005D
S214001520F5900000495A000028010020F4E400006D
S21400153034E500002C010020E5CD00000D5A000027
S21400154078E5000004010020B4E5000001C90000B1
S214001550C0E50000E8E5000045CA0000399100003B
S21400156014E600000000002028E6000048E6000020
S21400157070E60000F0B595B0051C0E1C00936B4697
S214001580DA71002801D0002903D13048304B984743
S2140015905AE0304C201C002164222F4B9847201C18
S2140015A0291C2E4FB847201C2130311CB8476B46EB
S2140015B0DA796223E25401220133E254009B002BC5
S2140015C042D004A800213F32234B98470F2169449C
S2140015D001230B7022480122224B9847002830D165
S2140015E0281C214FB84704AC2070281CB847021CA2
S2140015F011206844291C1D4B98471D48211C402279
S214001600184B984700281CD1301C174DA84704AC2F
S2140016102070301CA847021C11206844311C134B54
S21400162098471448211C40220E4B9847002808D1A2
S214001630F92080026B46D91D01220A4B98470028E4
S21400164002D00D48024B984715B0F0BD98E6000052
S214001650F59000002C010020E1C0000045CA000003
S21400166000E7030091350000E5CD0000A7C00000AC
S21400167000E5030000E30300CCE60000F8B50D48E3
S2140016800D4B9847002810D10C4C0B4D2F1C0C4EC0
S214001690201CA847002808D10A4BE018B847013C90
S2140016A0FF3CB442F4D1002802D00748074B9847C5
S2140016B00120F8BD00E60300A936000000E20300A2
S2140016C000D2030000F0FFFF34E70000F5900000B2
S2140016D0F0B557464E464546E0B492B0002856D080
S2140016E002A8002140222D4B98472D4B98472D48A5
S2140016F02D4901222D4B9847011E42D1C0232C4A6A
S214001700D35C002B43DD161C2A4D00272A4B984637
S2140017102A4B9A46254B99463468201CC04702AB94
S2140017201870201CC047021C02AB581C211CD04756
S214001730281C02A94022C847011E26D1331C80332C
S2140017401B680193181C1C4CA04702AA1070019835
S214001750A047021C02A801300199184B9847184B65
S214001760E81802A94022114B9847011E09D10137FB
S2140017700436013DFF3DC0230D4AD35CBB42CBDCA3
S21400178005E01048104B984701E00028F9D112B048
S2140017901CBC90469946A246F0BDC046E1C000007B
S2140017A07D16000000E60300AC070020913500001F
S2140017B0EC06002000E20300E5CD0000A7C0000014
S2140017C000F0FFFF68E70000F5900000F0B55F4608
S2140017D056464D464446F0B485B0002821D0141C29
S2140017E001910090002939D1002A1ED11BE0002C5F
S2140017F010D0344FC023FD5C029B581C324B9847D8
S214001800061C2035AD00E851211C304B98470023BC
S214001810029AB3542B49C0228B5C01338B540120AF
S21400182049E0002047E0002045E00098284DA84702
S214001830071C201CA8470290224B9846C02342460D
S214001840D65C781C204B9847051CB6004346F050E3
S21400185000991E4B98470023EB55C8E700981C4D8F
S214001860A84783460198A8470390201CA8470290E3
S214001870144DC0229246AF5C5A46501C124A9146FE
S2140018809047061CBB0058510099104A9046904756
S21400189000275A46B7545246AA5C9246039B581CE9
S2140018A0C847061C52461032930058510199C0474B
S2140018B0039BF7549BE705B03CBC90469946A2466E
S2140018C0AB46F0BDEC06002069C0000045CA00002B
S2140018D0E5CD0000F0B54F464646C0B4B3B0C724C9
S2140018E06C44002323703948211C0122384B98474A
S2140018F0011C2378FF2B06D10020383B6B44187060
S21400190000290BD001E0002804D03248324B98471B
S214001910002055E0002B01D005DC4AE02F482E4B76
S214001920984700204CE02E4C00262E4D284B99461A
S2140019302D4B984601A800214022A84711A8002157
S2140019404022A84721A800214022A847201C01A920
S2140019504022C847011E03D024481F4B984726E064
S21400196001AF3A7811A86B46591DC047204BE018C6
S214001970391C4022164B9847011E03D01D48164BB3
S214001980984714E001AB1A7821A86B46591D164BF0
S214001990984711A8002121AA174B98470136013C09
S2140019A0FF3CC7236B441B78B342C3DC01E0002036
S2140019B006E0C023114AD15C1148074B9847012026
S2140019C033B00CBC90469946F0BDC04600E6030016
S2140019D039360000A8E70000F5900000E4E70000B4
S2140019E000E20300E1C00000A7C0000024E80000F9
S2140019F000F0FFFF68E80000CD170000EC060020AE
S214001A00B0E8000070B5ACB0041C0E1C151C4348B2
S214001A100021C422424B9847002C07D0201C311CC2
S214001A202A1C00233F4CA047012473E06B46991DF7
S214001A3000230B703C4801223C4B9847011E03D004
S214001A403B483C4B984764E06B469C79012C03D09E
S214001A503948384B98475CE00BA800214022304EAE
S214001A60B04702AB002502950395049505950695AB
S214001A7007950895099520229D541BA80021213220
S214001A80B0476B46DD712D480BA94022274B98477F
S214001A90011E03D02A48274B98473AE00BAB1A782A
S214001AA002A82D216944274B9847F92080026B46EF
S214001AB0D91D01221D4B9847011E03D022481D4BFD
S214001AC0984726E021480BA94022184B9847011E4C
S214001AD003D01F48174B98471BE00BAB1A781BA880
S214001AE02D216944174B98471A4802A9114DA8475B
S214001AF019481BA9A8476B46DE1DD9791748A84781
S214001B00327802A81BA90023064DA847144B984715
S214001B1000E00024201C2CB070BDC046EC0600205F
S214001B20E1C000007515000000E70300393600002C
S214001B30D0E80000F590000000E9000000E5030092
S214001B4034E90000A7C000006CE9000000E30300D1
S214001B50A4E90000E0E9000000EA000020EA000036
S214001B60D5180000F0B583B0002818D0C0230E4A60
S214001B70D75C002F15DD0190151C00240B4E019834
S214001B802968B047002804D12034A400064BE0584A
S214001B9008E001340435BC42F1DB002002E00020FE
S214001BA000E0002003B0F0BDEC06002031CA0000C3
S214001BB020308000014BC0587047C046EC0600201D
S214001BC0F8B5C0230E4AD35C834218DD0D1C041CF6
S214001BD0081C0C4FB84701300B4B9847061C201CBE
S214001BE020308000064BC650281CB847421C301CCC
S214001BF00021064B9847301C291C054B9847F8BD1A
S214001C00EC060020E5CD000069C00000E1C0000041
S214001C1045CA00008000014BC0587047EC06002003
S214001C2010308000014BC0587047C046EC060020BC
S214001C30C023014AD05C7047EC060020014B1878A0
S214001C407047C0462801002010B586B00022224BFF
S214001C501A7000283ED00C1C0023029303930493B2
S214001C6005931E481E4B9847002C0FD023786278A9
S214001C70009202A81B491C4A1C4CA0471C4802A9FB
S214001C80174CA0471B4802A9A04707E002A81A491C
S214001C90154A164B98471948114B9847184C201C64
S214001CA000214822174B9847201C02A9164B98473C
S214001CB001233F22A354C0210232A1541839013215
S214001CC0A1540132A3540132A354201C0F49433AB5
S214001CD00F4B984706B010BD2801002044EA0000CC
S214001CE0F590000060EA00006CEA000001C9000000
S214001CF078EA000084EA0000A0EA0000A8EA0000F3
S214001D0004000020E1C0000045CA0000A8E400006E
S214001D10795A000010B582B0002817D0134C14482A
S214001D20211C144B9847201C134B9847C1B26223C2
S214001D30E25C231C2133FF200090201C0F4CA047A0
S214001D40002810D00E480B4B98470CE000220D4B95
S214001D501A700D4B9847002802D00C48054B984740
S214001D600B48044B984702B010BDC0462C0100201B
S214001D70C8EA0000F5900000E5CD00000D5A00000E
S214001D80ECEA000028010020295A00000CEB0000B5
S214001D9030EB0000F0B55F4656464D464446F0B47C
S214001DA0DE4CA544071C01900C1C151C1E1CDC48B0
S214001DB0391CDC4FB847201CDB490E22DB4B98470A
S214001DC0002800D0CEE0DA48DA4B98470022DA4BFB
S214001DD01A6000240023D94A9046D94FD94E994616
S214001DE01FE0201CB847051C201CB047021CD64824
S214001DF0291CCC4B984734A8002180229200D34B54
S214001E009847201CB047051C201CB847031C34A864
S214001E10CF492A1CCF4DA84734A8CF4B98478144BA
S214001E200134C0478442DCDB4B460293CB4ECC4B9E
S214001E309846B044341C0027C74D201CA847C71935
S214001E4064344445F9D1C748391C029C221CB54B62
S214001E509847A446BC44634603935C1C201CC24BB4
S214001E609847C24B18600021221CB84B9847BF4BBE
S214001E709B46B94B9946BE4B9A465B461D68281C46
S214001E80C847041C301CC847021C2819311CD04700
S214001E9064364645F1D1029B002B4FD0B34B1868F1
S214001EA0B449B54B9847061E45D0B04B1B681B1A65
S214001EB09A46BA445346581CAB4B9847041C0290AB
S214001EC0311C5246AA4B9847002351466354AB48F0
S214001ED0944B98470024994F9C4B9946994B9846AB
S214001EE01CE034A8002180229200C847201CC0476E
S214001EF0051C201C924B9847031C34A894492A1CA6
S214001F00944DA84734A8944DA847021C301C34A909
S214001F10974B984734A8A84736180134B8478442E8
S214001F20DFDB301C029C211C5246914B9847201C3C
S214001F30934B984702E093487E4B9847924B039DFD
S214001F401D60924C201C0021802292007F4B9847F7
S214001F50201C8F492A1C7F4B98470198211C8D4BCB
S214001F6098473CE2002C45D12B1C334342D1864B8C
S214001F70196800293ED0704C87482268694B9847FC
S214001F802468814B1D68AC4228DA804800218022F4
S214001F9092006E4B98472A1B804B9A4208DC734B84
S214001FA0196809197948724B9847634B1D600BE016
S214001FB06E4B196809197548784A6D4B9847774BE8
S214001FC09C4664445C4B1C6001987049714B984772
S214001FD0594B19687248534B984700E27148211CC8
S214001FE02A1C504B9847614C2068654B9847002345
S214001FF02360F4E1201C6C4919224C4B98470028BA
S21400200010D1624C201C0021802292004F4B984732
S214002010201C66494622564B98470198211C5D4B6A
S2140020209847DCE1201C62490422404B9847002870
S2140020302ED1002E16D0AE190136301C4A4B9847CA
S214002040071C5C4B18600021321C404B9847381C1C
S214002050211C2A1C464B9847574B1D600022574BA5
S2140020601A60BCE16F1C381C3F4B9847061C514B4E
S214002070186000213A1C354B9847301C211C2A1C3E
S2140020803B4B98474C4B1D6001224C4B1A60A2E11B
S214002090484B1868002800D1A1E1002E0FD0464E0C
S2140020A033689C466044211C2A1C314B9847336891
S2140020B09C46654435600022404B1A608FE13E4ED8
S2140020C033689C466044211C2A1C294B9847336879
S2140020D09C46654435600122384B1A607BE13848DF
S2140020E0144B9847294C201C002180229200174B45
S2140020F09847201C334948221D4B98470198211CBD
S214002100244B98472B4C20681D4B98470023236090
S214002110294A1360294A136061E1C0462CFDFFFF7F
S2140021204CEB0000A9C7000098EB0000F3CD0000C0
S214002130A8EB0000C9C800009C010020311C00006C
S214002140151C0000211C0000D8EB0000E1C00000B8
S21400215000EC000001C90000E5CD0000D4F000004E
S214002160740E000060EC000069C0000094010020BE
S214002170A7C00000B4EC0000A94B0000D8EC00009B
S2140021807DC0000008ED000090010020A80100209E
S2140021905CED00006D2B0000A0ED0000FF010000CC
S2140021A0FCED000048EE0000ACEE0000C8EE0000BB
S2140021B010EF0000A0010020A401002098010020DC
S2140021C018EF000058EF00001030894B9847041CA9
S2140021D08848211C884B9847884B18688849894B43
S2140021E09847002803D10022874B1A60F7E0834BFC
S2140021F01D680430281A854B1B68C018A04203D0FF
S2140022000022814B1A60EAE004A800214022804C9C
S214002210A04714A800214022A04724A8002140225D
S214002220A047281C7B49774B984700280AD042795C
S214002230262A07D0002304A95A540133C21852791B
S214002240262AF8D16D4B186873496E4B98470028BC
S2140022500AD0427A262A07D0002314A95A540133FA
S214002260C218527A262AF8D1644B18686B49654B17
S2140022709847002827D0427A262A07D0002324A988
S2140022805A540133C218527A262AF8D124A864492F
S214002290644B98470126002816D024A86249614B53
S2140022A09847013600280FD024A860495D4B984710
S2140022B00136002808D024A85D495A4B9847464264
S2140022C04641B60000E0002600255A4F4B4B994683
S2140022D0594B984631E04B461C68281CC047011CE9
S2140022E0201C484B9847041E26D034A80021802284
S2140022F0474B9847281C504B9847504B98470130FF
S21400230023181A78262A17D03C490C683F490968D2
S2140023106418A34210D2002101E0A34206D234A8DA
S2140023200A54013101331A78262AF6D1002903D03F
S214002330281C34A9424B98470135B8478542CADB6A
S214002340404C201C002180229200314B984734A834
S2140023503D495A223D4DA847201C34A95A22A84779
S2140023600198211C3A4B98473A4804A914AA331CF2
S214002370214CA04700242F4F2F4B9946364DB04690
S2140023800AE0201CC847061C201CA847021C33482D
S214002390311C194B98470134B8478442F1DB464656
S2140023A0F2B204A814A901232D4CA04701202D4BFE
S2140023B09847124C20682C4B984700232360134AFA
S2140023C01360114A13600AE028490E4B984700280C
S2140023D000D0F9E683E6094B18680028F4D1B52347
S2140023E09B009D443CBC90469946A246AB46F0BD39
S2140023F005C00000A0EF0000A9C70000A001002053
S21400240098ED0000A94B000098010020A4010020D0
S214002410E1C00000D4EF0000DCEF0000E8EF0000B1
S214002420F4EF000031CA0000FCEF00000CF00000E2
S21400243010F00000311C0000151C0000E5CD000067
S214002440C11B0000A80100204CF00000A7C000003F
S2140024506D2B000020F00000B11B0000D8EB000040
S21400246075150000D11600007DC0000018E40000BD
S21400247010B50848084B9847084C201C00218022BD
S2140024809200074B9847201C06494822064B98475F
S21400249010BDC046A8F00000C9C80000A801002072
S2140024A0E1C0000058EF0000A7C0000000487047D9
S2140024B0A0FF00000A4A00235178814208D1117813
S2140024C07F2905D89800C01883000548C01805E085
S2140024D00133DBB21432072BEED100207047C04622
S2140024E0A803002010B50E4B1B785BB2834208D0C1
S2140024F00B4A143201231C1C00215156814208D17C
S21400250000E00024A3001C19A400054B1C196078E9
S21400251004E001331432072BEDD1002010BDC04675
S214002520A803002008B5002802D0024B984700E018
S214002530002008BDE5CD0000F0B583B00193134C34
S2140025406478002C08D0114E15360124E5B2271CFD
S2140025503378002B0DD101E0002700250B4CBE0080
S214002560F3199B001855E01841704260019B836088
S21400257005E00135EDB201341436072CE6D1072DFF
S21400258002D10348034B984703B0F0BDA8030020D0
S214002590B4FF0000F590000070B586B0051C0C1C5A
S2140025A04148291C414EB047FF20011C2140220A09
S2140025B00240230C0340200E00903D48B0473D48A3
S2140025C0291C3D4B9847002850D13C4B1B787F2B4D
S2140025D05ED83A4914310122D5B2101C0B787F2BF5
S2140025E00FD993009B189B00344AD3185B78062BB0
S2140025F00DD0830018188000304B1B1806225A7026
S21400260005E06B1CDDB201321431072AE4D1072D38
S21400261003D12B48254B984740E002AB02221A8094
S214002620284A5A800394022001210022264B98470C
S214002630061E03DA25481D4B98472FE0002C04D0D1
S21400264002A91022224B984703E002A91022214B30
S21400265098471A49AB005A19920056545A199200D4
S2140026608A18D460131C1C4A1A821AE01B48291CBC
S214002670114B9847002807D1281C211C184B984757
S21400268018480A4B98470CE01748084B984708E04C
S2140026900A4B5B780025062BBFD0AAE71348034BEE
S2140026A0984706B070BDC046E4FF0000F5900000F5
S2140026B0F8FF00001400010031CA0000A803002043
S2140026C024000100203D0000A16F0000440001002E
S2140026D061710000657000003D2000007800010078
S2140026E01503000088000100CC000100EC0001008A
S2140026F0F0B583B0051C0191161C1F1C064B9847AD
S214002700C41BB44200D9341CE9190198221C034B9F
S2140027109847201C03B0F0BDE5CD0000A7C0000020
S214002720F8B5141C01290CD002DC002905D03EE0C7
S21400273002290AD0042926D039E01D481D4B9847A7
S21400274035E01D481B4B984731E011881B485268FE
S214002750184B98471A4B1F68002F28D06668701CC5
S214002760184B9847051CA168321C174B9847002346
S214002770AB55164B1868228800212B1CB847281C1E
S214002780134B984713E0134811680A4B98470C4BB5
S2140027901D68002D05D00D4B186821680022002307
S2140027A0A84723680B3302D10B48024B9847F8BD65
S2140027B014010100F5900000200101003401010021
S2140027C05006002069C00000A7C0000034040020A6
S2140027D07DC00000580101007401010008B5002802
S2140027E001D0014B984708BD7DC0000010B5134BC3
S2140027F01B785BB2834208D0104A143201231C1C9B
S21400280000215156814213D100E000240C4B98471A
S2140028100A49A00003199B00CB1800221A605A60D0
S2140028209A60DA601A610419A400FF23635403E077
S21400283001331432072BE2D110BDC046A803002096
S2140028403973000010B50E4B1B785BB2834208D07C
S2140028500B4A143201231C1C0021515681420AD116
S21400286000E00024074B9847A3001C19A400FF2291
S214002870034BE25403E001331432072BEBD110BDB7
S214002880A80300203973000030B589B0214B181C0E
S2140028908C300022FF211A605A609A60DA601A6152
S2140028A0197014338342F6D11B4B98471B481C49BA
S2140028B01C4B984701AC201C1B4B984701232370E8
S2140028C01A4D281C211C1A4B9847281C194B984750
S2140028D0201C194B9847FA23DB0023818023DB005A
S2140028E0236165600023A370503323801348211CA6
S2140028F0134B9847002806DA124B9847011C1248DB
S214002900124B9847FEE70D481149124B984709B0FD
S21400291030BDC046A8030020496F0000D52B00003C
S214002920992500008D6F000065120000B00700209A
S214002930711200001D130000950100000808002019
S214002940BD010000CDCD0000B0010100F5900000F3
S214002950212700007502000008B50620034B9847A3
S214002960002802D10248034B984708BDB524000052
S2140029701400010021740000F0B54A4CA544071C61
S214002980039104921C1E16D0181C474DA847431CE2
S2140029900593181C454B9847061C454B586100216B
S2140029A0059A444B9847201CA847021C301C211C43
S2140029B0414B984702E000223D4B5A613C4B3F4A50
S2140029C05A603F4A9A6000221A703E4ADA603E4ACF
S2140029D01A6159693D483E4B984726A80021802237
S2140029E09200344B984726A83A493A1C3B1C293398
S2140029F0394CA047AC9B002B1DD05223FB5C002B10
S214002A000AD026A8284B984726AB9C4660443349F4
S214002A103A1C5232304B98479C23FB5C002B0AD062
S214002A2026A8214B984726AB9C4660443A1C9C320D
S214002A302B49294B984706A8002180221D4B984712
S214002A4006A82849284A049B234CA047039C201C20
S214002A502649274B98470122002815D0201C2549D7
S214002A60234B9847022200280ED0201C2249204BD8
S214002A7098470422002807D0201C20491C4B984762
S214002A800022002800D10332D2B2002300931C4853
S214002A9006A9074B1B4CA0470020A7239B009D447C
S214002AA0F0BDC04664FDFFFFE5CD000069C0000034
S214002AB038040020E1C00000A7C00000AD240000DC
S214002AC025250000F1260000DD2700005802010041
S214002AD0F59000007802010001C90000DC02010048
S214002AE0FC0201001803010020030100340301006A
S214002AF031CA000010EF0000380301003C0301005B
S214002B0008080020E108000030B5C1B0041C684683
S214002B100021802252000C4B984768460B490C4A0D
S214002B200C4B0D4DA8470D4869460D4B9847684617
S214002B300C4B9847021C60B292B2694600230A4CBE
S214002B40A04741B030BDC046E1C0000044030100CC
S214002B50300900205809002001C90000A803010020
S214002B60F5900000E5CD0000F971000038B50D1CA9
S214002B70C4B260B2114B9847011E042903D0062840
S214002B800CD0022816D1281C0D4B9847021C60B2A8
S214002B9092B2291C00230B4CA0470EE006200A4BDD
S214002BA09847002809D082684368101C00212A1C18
S214002BB0984702E00548064B984738BDE5240000D4
S214002BC0E5CD0000F9710000B5240000C80301003F
S214002BD0F5900000F0B583B0051C0C1C161C914B3C
S214002BE098470090071E05D1281C211C321C8E4BCE
S214002BF0984715E1072C00D912E1A4008B4B1B590E
S214002C009F46002E08D00023F356002B04D1281C24
S214002C100021874B984703E18648874B9847281C36
S214002C20864B9847FCE0002E0CD00023F356002B72
S214002C3008D18348804B9847281C00210022814BEE
S214002C409847EDE080487C4B9847281C7B4B98477C
S214002C50E6E0002E30D0311D281C0022794B984724
S214002C60347863B2002B00DADAE0281C6D4B984704
S214002C7001280BD160B2022100220023734CA0472A
S214002C800021715672486C4B98470CE003280AD115
S214002C9060B20421002200236C4CA047002171562C
S214002CA06C48654B9847002030566B49802292004E
S214002CB000236A4CA047B3E06948291C5E4B98473E
S214002CC0281C5E4B9847ABE0002E1BD0727853B2A0
S214002CD0002B11DB062807D16248291C0622564B1A
S214002CE09847E8B2604B9847281C5B4980229200C0
S214002CF000235A4CA04793E052B25C48291C4E4B26
S214002D00984703E05A48291C4B4B9847062F00D09B
S214002D1086E0281C574B98475748584B98477FE003
S214002D205748291C009A444B9847022F78D1E8B29E
S214002D30002100220023534CA04771E0002E46D00D
S214002D400422B35E002B42DD4F48291C009A3A4B02
S214002D509847042F0AD0062F0FD0022F2BD1E8B2A7
S214002D603168B288F388474CA04728E0E8B231685B
S214002D70B288F388454CA04721E0EBB20093181CBC
S214002D80394B98470422B45E671C381C404B984762
S214002D90019000213A1C3F4B98473168019E301C39
S214002DA0221C3D4B98470098311C3C4B9847301CE2
S214002DB03B4B984703E03B4800991F4B9847281C1D
S214002DC02549802292000023244CA04728E00422B4
S214002DD0B35E3548291C009A174CA047B488231CBC
S214002DE00E339AB20D2A1BD89300304AD3589F460A
S214002DF0062F15D106202E4B9847002805D082684E
S214002E0021B24368101C002298470423F15E29482B
S214002E10094B9847281C174B98471748174B984755
S214002E2003B0F0BDE52400002110000048FF0000BC
S214002E30DD700000F4030100F5900000ED270000AF
S214002E401404010039710000340401003925000023
S214002E505404010084040100500400209572000010
S214002E60B8040100E4040100092B00002405010059
S214002E707C050100452800001400010021740000B4
S214002E80D8050100951D00000C0601007124000005
S214002E9069C00000E1C00000A7C000006D2B000064
S214002EA07DC00000400601007C06010068FF0000AF
S214002EB0B5240000D4060100024B1860024B1960CE
S214002EC07047C0465006002034040020F0B585B098
S214002ED0041C0F1C03921D1C0F48104B9847CC2354
S214002EE00A9AE250201C111C221C0D4B9847002DFC
S214002EF001D02B1C00E00B4B0B48391C039A074EE5
S214002F00B0470B9B0093201C391C039A2B1C074CC4
S214002F10A04705B0F0BDC046B4070100F59000001C
S214002F2035330000801D0100E00701007D31000000
S214002F30F0B585B000900191D420504B9847061C00
S214002F404F4B9A684F4B1A600024046044608460BC
S214002F50C460046144618461C461046244622825DB
S214002F6044552922944684446246029260460021D3
S214002F702922454FB84752229446B44462460392EB
S214002F80604600212522B847321C7732101C0021EB
S214002F902522B847371C9C373C607C60BC60FC60D0
S214002FA03C617C61BC61FC613C627C627C55374B59
S214002FB09847009C002C0AD0301C211C2822344B39
S214002FC0984700203349221C334B984709E00020DD
S214002FD03049324B9847011E03D0301C28222C4B18
S214002FE09847019C002C0AD00298211C2822284BC6
S214002FF0984700202A49221C274B984709E00020C2
S2140030002749264B9847011E03D002982822204BBA
S214003010984700202349214B9847011E03D0381CAF
S21400302028221B4B984700201F491C4FB8470023F7
S214003030C822B3500432B3500432B3501B4C201C89
S2140030400021A73A104DA847194800212522A84775
S214003050201C009928220E4B984700201549B84797
S214003060011E08D0039D281C2422094CA0471048A6
S214003070291C2422A047301C05B0F0BD69C0000002
S21400308010E000E054060020E1C00000D518000063
S2140030901BCE000088090100C9310000B9310000CC
S2140030A098090100A4090100300701005809002012
S2140030B0300900200808010030B583B0041C0698CB
S2140030C0009001200190201C034DA847201C034BB4
S2140030D0984703B030BDC046CD2E00001133000027
S2140030E0F8B5054C26680025044F3D602560002E87
S2140030F000D0B047F8BDC0465C0600205806002049
S21400310000B587B00C4B98470023019302930393B6
S21400311004930593094B00936846094B9847011E94
S21400312004D00848084B9847FF2002E0074B984712
S214003130002040B207B000BDC947000001140000DF
S214003140D5570000D8090100F59000008928000036
S21400315008B5D2B2074B9847002804D00422064B85
S2140031601A70002003E00122034B1A70012040B2BF
S21400317008BDC046051A00006006002030B583B0C2
S2140031800125094C2560069C0094084CA0470023A6
S214003190002806D00022044B1A600548054B9847C5
S2140031A0FF2358B203B030BD58060020792900002E
S2140031B00C0A0100F590000008B5081C014B984762
S2140031C008BDC046651B0000F0B583B000910192B3
S2140031D00F4B9847071E0EDD00240E4D0E4E201C8A
S2140031E0A8470099B047002802D1631C09D102E025
S2140031F00134BC42F3D10099081C0022074B9847C3
S2140032003C1C201C0199064B984703B0F0BDC046F5
S214003210311C0000151C000031CA0000CD1700004C
S214003220C11B000030B585B0051C2E4C0020A04701
S2140032300028FBD12C4B1978062946D88B002B4A40
S214003240D3589F4602AD00230293AB8001AC238087
S214003250281C274B98472B7923706B7963700120C5
S214003260211C244B9847244B1B78002B06D01D4D61
S214003270214C0020A8472378002BFAD101221E4BB0
S2140032801A700332184B1A70042029E001201B4BD9
S21400329098470522144B1A70052021E0184B9847D2
S2140032A000281AD00622104B1A70062018E0002DAF
S2140032B015D0D023EB580620002B11D00022D023A7
S2140032C0EA50104B984706200AE00F480F4B9847E5
S2140032D0054B187804E0002002E0002000E00620FD
S2140032E005B030BD3158000060060020BC09010062
S2140032F04D5A0000491C000000000020151D00006B
S2140033003D1C0000592900004C0A0100F590000001
S21400331070B5064B1B68002B07D0041C044E034DEB
S214003320201CB0472B68002BFAD170BD5806002031
S2140033302532000038B50D1C141C054B9847054B6C
S2140033401D600548211C054B9847002038BDC04627
S214003350113300005C060020E1300000B92E0000AA
S21400336030B587B00C1C151C002302935A336A46EE
S2140033701380513B538003AB019369460D4B98472E
S214003380031E14D103AB9978002904D00A480B4BCE
S214003390984713200BE003AB1A781202597852189C
S2140033A02A60D97909021A7A8B182360002007B0A0
S2140033B030BDC046AD3D0000680A0100F590000033
S2140033C038B52B4B1C6823681D7EEDB2EA0731D555
S2140033D0E27ED2072ED5A27ED2072BD501221A7600
S2140033E06269931C636123685B8B9BB21380238B9B
S2140033F0013B9BB22383002B11D0637F002B19D097
S2140034002268537E5BB2002BFBDB117B02230B434F
S21400341013732268537E5BB2002BFBDB0AE0237F2C
S214003420052B07D100232377013322689375201CD0
S214003430A36898476B070BD5042322681376E37EB0
S2140034409B0705D5A37E9B0702D5201CE3689847FB
S214003450AB070BD5022322681376E37E5B0705D500
S214003460A37E5B0702D52369201C984738BDC0465B
S2140034708409002010B51E4AD16904230B43D3618A
S2140034801C4B198B2022FF320A431A831A7D052310
S214003490D2072BD502781202C02189000A40141CDC
S2140034A04178C901FF22131C0B40221C1A43C37823
S2140034B09B041343827852001E210A40134302796C
S2140034C01204C02189020A4013430A4A53609368D3
S2140034D05B035B0F084908249C400C8093684B8074
S2140034E043780B71138BDB05DB0F1B01181C10BD1B
S2140034F000040040004000416406002030B5041C73
S2140035001F4A5088138843438B4206D218208022D5
S21400351092011C4BCB18934231D81B4B5D6880221E
S214003520D2022A435A60188B2022FF3202431A83A3
S2140035301B7D0520DB0722D5452C1FD8A300134A88
S214003540D3589F46104B1B8B1020DB0517D48908D9
S21400355049000D4BD96103E0890849000A4BD9613F
S214003560A52000020443084B1C80191C01220B7D79
S2140035701342FCD0044B5D60002000E0172030BDF5
S2140035806406002000C07FFF00400041800A010062
S214003590F8B5254B1D885B886B431824834240D3BF
S2140035A06B1E03423DD1013C95423AD31F4B1B7D17
S2140035B0123CDB0735D51E4C1C4B1C801D1C012401
S2140035C02B7D2342FCD0194C258B2023FF332B4325
S2140035D023834608002A1FD076000023571ECD5CA2
S2140035E0BB4201DBACB203E0CC18647824022C4367
S2140035F0348002339BB202369A42F0D80A4B1B79CB
S2140036000024002B0DD13F2A0BD8011C04200022D9
S214003610084B9847041C04E0034B1B790024002B3E
S214003620F3D0201CF8BDC0466406002000400041D0
S21400363044A5FFFFFD34000070B5194B1D885B885C
S2140036406B431824834228D36B1E034225D1013CCA
S214003650954222D3134B1B7D123CDB071DD5114C24
S214003660258B2023FF332B4323834008002A13D0C7
S21400367040000025561E2B181C88A4B22B041B0CD9
S214003680CC54B34202DACB18240A5C700235ABB2D3
S2140036909A42F0D8002400E00024201C70BDC046EA
S2140036A06406002000400041114B1A885B88534393
S2140036B01821834219D39200013A104215D10D4BBE
S2140036C01B7D1339DB0710D50A4B198B2022FF32DE
S2140036D00A431A8380084000D861074A1A80191CDA
S2140036E001220B7D1342FCD00021081C7047C04607
S2140036F0640600200040004102A5FFFFF0B5002947
S2140037001BD0061C0139C9B201314018FF23082519
S214003710312731784B40291C5CB2002C03DA5B0061
S2140037207B40DBB201E05B00DBB20139C9B20029A5
S214003730F2D101368642ECD100E0FF23981A4342CC
S2140037405841C0B2F0BDC04630B587B00D1C141C41
S21400375001A900238B6070330B806A3B4B8004AB5F
S2140037604B60194B9847021E2BD104A88278022181
S214003770164B98471322002823D004AB5A791320FF
S21400378068440221114B98471322002819D004AB35
S2140037901A78120259780A432A60D97809021A79E7
S2140037A00B1C134323600A4B2A6853435B13094AD6
S2140037B0944663442B60084B226853435B13236094
S2140037C00022101C07B030BDAD3D0000FD360000E5
S2140037D0735500003850FFFFD4300000F0B587B0B6
S2140037E0051C171C019303AB0022059270321A8049
S2140037F06E3A5A800491191C074B9847041C3220D5
S214003800064B9847201E04D1281C391C019A044BED
S214003810984707B0F0BDC046CD3D000045470000C4
S2140038204937000010B50C1C131C0249221C024C20
S214003830A04710BD9C0B0100DD37000010B584B01A
S214003840041C0023029370336A4613806E3B538039
S214003850124B01936946124B984703236A465380DE
S21400386003AB019332200F4B9847201C69460E4B42
S2140038709847031C0020002B0ED103A88278022153
S2140038800A4B9847002807D003AB5B781F201840E8
S214003890073843425841C0B204B010BD980B01002F
S2140038A0CD3D000045470000AD3D0000FD36000060
S2140038B001680722CB691A42FCD17047F0B54F4623
S2140038C04646C0B483B0071C0D1C161C3960081C85
S2140038D0684B984768490A6A841C0123A34013432F
S2140038E00B6201A9337B0B701430C4B2201C634BEF
S2140038F09847201C624B9847307B0021614B9847C5
S2140039002B681C209B0700D5AEE02B681738DB071A
S21400391000D5A9E03868574B99469847041C5A4981
S2140039205A4B9847A4005A4BE75000233B767B76C9
S21400393000247B83BB832522BC543B6214332B605C
S2140039403B689846181CC847051C80236A461370B7
S214003950547001239370D470F069346A002803D140
S214003960404600214B4B98476B46187002236A4628
S2140039705370000CC0B26946474B9847002C04D1E0
S21400398040460121434B9847041C6B461C7002239B
S2140039906A465370240CE0B269463F4B9847B38A98
S2140039A0FB80F38A3B81327E8023002A04D13B4B86
S2140039B09B789B07DB0FDB013269002A00D013439C
S2140039C0B26813432422B25C002A02D08022D205B9
S2140039D01343B26A002A00D013432C22B25C002A9A
S2140039E002D08022120513432D22B25C002A02D098
S2140039F08022120413432E22B25C002A02D08022B8
S214003A00D203134342461268134342461360802390
S214003A105B0053601435EDB2281C214B9847FA2101
S214003A20C900336859434B1E18181E4B9847441F4D
S214003A30FF2C0DD8281C1A4B98477168FA23DB0018
S214003A4059434B1E1818174B98470138FF2801D9C1
S214003A50402009E00004FF231B041840FF231C40FD
S214003A6004434346DC60002003B00CBC90469946F5
S214003A70F0BDC046D57A000000040040458C00002A
S214003A80B98B000001790000CD3E0000157B0000D8
S214003A90A80A00204D7900003D8D0000002000415E
S214003AA0618C0000759C000003681A7E920707D59B
S214003AB002221A765B8B9B074120DB1718400AE030
S214003AC05A8B520706D55A68C02189020A435A60A3
S214003AD0182000E00020704730B50268002301245B
S214003AE0022504E001339BB20189994207D9117E71
S214003AF0214206D1117E2942F4D0002002E0122095
S214003B0000E0002030BDC04610B50468636880221F
S214003B10D202134363606162024B98470123237607
S214003B2010BDC046D93A0000F0B55F4656464D4631
S214003B304446F0B483B0061C894605684C882B685A
S214003B401B01DB0F9A464B7A002B02D0897A554B25
S214003B5098476A68544B13406B604B461B7A002BA1
S214003B6028D04B465B7A9A034B461B885B00134370
S214003B708022120213436B62301C4C4B98476A68D3
S214003B80494B13406B60031E00D082E0301C484B4C
S214003B909847031E00D07CE04B465B7A9B030122CD
S214003BA013434A461288120A78210A4352001343E6
S214003BB06B6209E04B461B885A004B465B7A9B03B8
S214003BC01343012213436B62301C384B98476A68D4
S214003BD0354B13406B60031E5BD1301C344B98474B
S214003BE00190031E55D1013CA4B200239846314BE8
S214003BF09B4629E06B8B9B064AD5F37A002B0FD0A9
S214003C005346002B02D1002C02D009E0012C07D12C
S214003C106B688022D20213436B60013CA4B213E0AF
S214003C20301C254B984743465F1CBFB22823EB5CED
S214003C304A46526841465354301C1C4B9847013C38
S214003C40A4B2002803D1B8465C45D3D101E0B846FB
S214003C500190B37A002B08D0301C174B98476B683E
S214003C60C022920213436B6007E0301C124B984749
S214003C706B688022520213436B60301C0E4B9847D1
S214003C802823EA5C4B465B6841465A54019B00E099
S214003C904123181C03B03CBC90469946A246AB464E
S214003CA0F0BDC046093B0000FFFFFBFFD93A00000D
S214003CB0A93A0000FFFF0000B1380000F0B55F46EB
S214003CC056464D464446F0B483B0061C0F1C0568A5
S214003CD04C88314B98477B7A002B03D0B97A301C3E
S214003CE02E4B98476A682E4B13406B603B7A002B2E
S214003CF009D07B7A9A033B885B001343802212022A
S214003D0013436B6205E07B7A9A033B885B001343A0
S214003D106B62301C234B9847031E36D1301C224B57
S214003D209847031E019030D1A046002420339946C0
S214003D30194B9B461B4B9A4611E06B8B4A46134227
S214003D4022D0301CD8477B681A5D2823EA54301CE2
S214003D50D047002806D16B8B01345B0704D444455A
S214003D60EBD103E0019001E01E230193B37A0198A2
S214003D70002B0AD0301C084B98476B68C022920272
S214003D8013436B60019800E0412003B03CBC9046B2
S214003D909946A246AB46F0BDB1380000093B00008C
S214003DA0FFFFFBFFD93A0000A93A000008B5838B55
S214003DB09BB20522002B05D101338372C372024BDE
S214003DC09847021C101C08BD293B000008B5838BD1
S214003DD09BB20522002B05D183720133C372024BBE
S214003DE09847021C101C08BDBD3C00000168072255
S214003DF0CB691A42FCD1704770B5041C066832685D
S214003E00438B858B5D1BADB2838B013B9BB283835B
S214003E1013010CD5C37A002B15D0838B9BB2012BD4
S214003E2011D173688022D202134373600BE0C37A09
S214003E30002B08D0838B9BB2002B04D173688022A2
S214003E40D20213437360A38B9BB2002B13D1A37AC9
S214003E50002B08D0201C0D4B98477368C022920296
S214003E601343736007E0201C084B98477368802252
S214003E70520213437360201C044B9847236A5D1953
S214003E802823F35CDBB22B7070BDC046ED3D00000E
S214003E9070B50668738B5B0703D51E222523C254B4
S214003EA010E0051C438B848B1C1BA4B2838B013B48
S214003EB09BB28383044B98472B6A1C192378DBB28A
S214003EC02822B35470BDC046ED3D000070B580009A
S214003ED06C4BC45825682B681B01DA0F637E267E60
S214003EE01E40638B9BB2002B35D1A38B9BB2002B5D
S214003EF031D02B7EDB0708D501232B766B8B9B07F7
S214003F0016D541222523E25412E06B8B5B070FD5B2
S214003F1018222523E2540023A383A37A002B07D07C
S214003F20201C594B98476B68C022920213436B6063
S214003F30A38B9BB263832523E35C052B56D11F33EB
S214003F40E35C002B03D1201C504B98474EE0201C0E
S214003F504F4B98474AE0638B9BB2002B26D0A38B2F
S214003F609BB2002B22D12533E35C052B1ED11F33D9
S214003F70E35C002B1AD103332B75002363832533B0
S214003F800022E254A37A002B08D0201C3E4B984710
S214003F906B68C022920213436B6001E001232B760C
S214003FA0F30723D5E368201C98471FE0638B9BB27A
S214003FB0002B1BD0A38B9BB2002B17D06B8B9B06C2
S214003FC009D4002A03D0A38B9BB2012B03D0412235
S214003FD02523E2540AE02423E35C002B03D1201CB3
S214003FE02A4B984702E0201C294B9847638B9BB2CC
S214003FF0002B25D0A38B9BB2002B21D12533E35C6D
S214004000052B1DD11F33E35C012B19D102332B7511
S2140040100023638325330022E254B30707D5242305
S214004020E35C012B03D12369201C984708E0F307C3
S21400403006D52423E35C002B02D1E368201C9847B6
S2140040402523E35C052B1CD02523E35C002B18D02E
S21400405003232B7500236383A3832533E35C412B63
S2140040600AD0A37A002B07D0201C074B98476B6812
S214004070E022D20213436B60730702D56369201CEB
S214004080984770BDA80A0020ED3D0000913E000054
S214004090F93D0000084B98420AD0084B984205D0DC
S2140040A00023074A904205D1023302E0012300E0D4
S2140040B00023DBB2181C7047002000420024004298
S2140040C00028004210B5041C081C4F4B98470023DC
S2140040D0236080004D4A82586260A372E3722373A5
S2140040E063722372E36123626362A362237563755E
S2140040F0A375E3752376637623746374A374E374FD
S2140041002C22A3540132A3540132A3540132A354E7
S2140041100132A3540132A3540132A3540132A354F2
S2140041200132A3540132A3540132A3540132A354E2
S2140041300132A3540132A3540132A3540132A354D2
S2140041400132A3540132A3540132A3540132A354C2
S2140041500132A3540132A3540132A3540132A354B2
S2140041600132A3540132A3540132A3540132A354A2
S2140041700132A3540132A3540132A3540132A35492
S2140041800132A3540132A3540132A3540132A35482
S2140041900132A3540132A3540132A3540132A35472
S2140041A00132A3540132A3540132A3540132A35462
S2140041B04132A354A365A3670132A354E365E367C2
S2140041C00132A35423661A3AA3501B32A3546366E3
S2140041D0173AA3501832A354A366143AA3501532C4
S2140041E0A354E366113AA3501232A35423670E3A3F
S2140041F0A3500F32A35463670B3AA35001210C322D
S214004200A1540132A35410BD95400000B00B01002C
S214004210F0B55F4656464D464446F0B48FB0009023
S2140042200C1C171C081C874B9847051C061C864A46
S214004230116A8000854BC3580B43136223681C2009
S2140042409B0700D5DDE123680122134000D0D8E1AA
S214004250AA007F495258053839688A4200D2D0E110
S21400426079688A4200D2CCE1F9698A4200D2B3E189
S214004270396A914200D9B1E1796A8A4200D2AFE147
S214004280B96A8A4200D2ADE198229446BC4462469E
S2140042900492614600220878002804D06D48805DAC
S2140042A0904200DCA0E101320131082AF3D100225D
S2140042B09046802149048C46B918097C012909D109
S2140042C06549895D914200DA90E161469140404639
S2140042D0084380460132042AEED19D32BA5C002A99
S2140042E004D0802212014146114388463A7B06924A
S2140042F0FA7A07923A7A511E8A41920003927A7AA3
S214004300012A02D1039911430391534A525D111CAD
S21400431005923522B85C814200D871E12C22BA5C45
S2140043200F2A00D96CE12D218C46BC4461460191D0
S214004330002108969946BB460F1CA24609950CE03C
S214004340907C059B834200D85AE1527A019B0A333F
S214004350019304370F2A00D952E11106F0231B05FA
S2140043601940019B1A1C1D782D04FF2424042540A7
S21400437002955B788024002B00D14C469678082363
S214004380002E00D14B46D678B44610266546002D42
S21400439000D14E468002C0252D01284001431079E9
S2140043A00325284001430298014355796D0160209A
S2140043B0284001430D1C90790002C021890001406D
S2140043C00D43D0790003E021C90101400D432C4381
S2140043D023431E430CABFE50042FB1D1089E544617
S2140043E05F46099D1B4B5B5D9C46584650305A46BF
S2140043F04132002301218B46802149028A460194DE
S214004400341C6646291C1D1CB9460F1C01998C4697
S2140044100178002909D09E4200D8E9E0514699402B
S2140044200D431178002906D11BE01178002918D019
S2140044309E4200D8DEE0022910D10221FF319940C9
S2140044400D430EE09540000000040040A40B010060
S214004450B00B0100C00B0100BC0B0100594699408F
S2140044600D43013301300232082BD1D1261C64469D
S2140044703B1C4F46A9461D1C654B5B5D01937B7E2E
S2140044801B01302213403A7E07210A401343181CB2
S214004490002380214902FA18127D002A06D0019ACC
S2140044A09A4200DCA8E00A1C9A4010430133042B11
S2140044B0F1D1029000990B1C04333431002204C35E
S2140044C08B42FCD1002300994B638B63AA00514BAF
S2140044D0D1500C60A023FA5C643BCA540BA9BB7A8B
S2140044E00B704D4B5B5D0093181C4C4B9847009827
S2140044F04B4B98474B4B5B5D002B29DD3D1C5835DD
S21400450097235B42DB1B9B46464B9A4643460093EB
S214004510A046341C049E5B46BB461F1C3378002B0B
S2140045200BD001230AAA937000220AA9CA702A6A2D
S2140045300A704B7028783C4B9847BB1901360435F7
S2140045405246125D9A42E9DC4446009B98465F4616
S214004550069B1A03079B1B02134342461343236022
S2140045600422A3681A42FCD1FF2323710422A36805
S2140045701A42FCD16B461B7B63710C9BE3600D9B60
S21400458023614B46A361294AA3681342FCD1029BD0
S214004590E3631022A3681A42FCD13B686363244A93
S2140045A0A3681342FCD17B6823640198002825DDAC
S2140045B03D1C1C3500211F4E321C8A40A368134246
S2140045C0FCD104CD0B1C10339B00E3185A6001315C
S2140045D08842F1DC002014E0172012E0172010E0DB
S2140045E017200EE017200CE017200AE0172008E03E
S2140045F0172006E0172004E0172002E0002000E065
S21400460017200FB03CBC90469946A246AB46F0BD7C
S214004610BC0B010088090020A00B0100458C00009F
S214004620B98B0000C00B01003D8D00004000020069
S2140046308000040000010800920083185960034BB4
S214004640D358426B1343436300207047C80B0100E6
S21400465038B5041C0D1C0068094B9847094B1B5CB9
S2140046601F2213401E3A9A40131C074A1360AD00DF
S214004670064BEA58A36B1343A36323689A6238BDBC
S21400468095400000C40B010000E100E0C80B0100EB
S214004690F0B5474680B480000D4BC7583B68DE6ACD
S2140046A07B6B1E40BB6B1E4000240A4B984643465D
S2140046B0E5582E4205D03B195B68381C98473B6886
S2140046C0DD620434302CF2D104BC9046F0BDC04606
S2140046D088090020C80B010008B50020014B984748
S2140046E008BDC0469146000008B50120014B98471A
S2140046F008BDC0469146000008B50220014B984709
S21400470008BDC0469146000010B50020084B9847EB
S214004710084CFA218900A047074B1860FA21890047
S214004720A047064B18600522054B1A6010BDC04610
S2140047302D8B0000759C0000500000204C000020CF
S21400474010E000E030B5084B1C68084A00258021C0
S214004750490206E0002C04D05460956013680B42B2
S214004760FCD00138F6D230BD5000002010E000E04A
S21400477008B5034B1B68002B00D0984708BDC04601
S2140047806C06002038B5002806D0041C034D012016
S214004790A847013C002CFAD138BDC046454700006A
S2140047A0F8B5074C20276761402666616420054DF2
S2140047B0A847A7610A20A847A6610A20A847F8BD0F
S2140047C0804400418547000070B582B00023134A3C
S2140047D0136001AC01256570A37025702620211C8E
S2140047E00F4EB0472520211CB0472720211CB0477C
S2140047F00C4B1B681D4203D00A4B1B689B0701D459
S214004800094B9847094B98470122094B1A70BFF38A
S2140048105F8F62B6002002B070BDC0466C060020F6
S214004820ED76000010E000E009470000A147000018
S2140048305C00002010B584B00E4B186001AC201C44
S2140048400D4B9847242301930023636001332372A2
S2140048500133E3720420211C084B984708480421C2
S2140048600022084B984704200021074B984704B0C5
S21400487010BDC0466C06002061760000757600000C
S21400488071470000097500003575000008B500285E
S21400489004D004200021044B984703E004200021A4
S2140048A0024B984708BDC046357500005575000098
S2140048B030B591B03048314B9847314C05232370C2
S2140048C000236370A37001A901224A708B700A70DE
S2140048D005202C4B98472378D9090022002904D1BB
S2140048E05A09D20128498C4662441F210B401E39C2
S2140048F0081C9840906102AA1170002353609360D0
S214004900137453749174D1741375233153540993EB
S2140049100A9380235B02D3601C4B936201235B42A5
S214004920D3621B4B13631B4B53631B4B93611B4898
S2140049301B491C4B984700281AD1184D2C68201C80
S214004940194B98471F2318401E3B8340181C174BD3
S21400495018602A68D369002BFCD1226802331343FF
S2140049602360134B98470120124B9847002000E025
S214004970FA2040B211B030BDF80B0100F5900000EF
S21400498094090020ED760000004400410300040076
S2140049900300060003000700001BB700980900206C
S2140049A000080042DD7B0000517B000000E100E0D3
S2140049B0A147000085470000F0B55F4656464D46C5
S2140049C04446F0B485B0032869D10E684D680C895A
S2140049D0002202ABDA71002E08D0002D5DD1012333
S2140049E099460023019302ABDD1D05E0002399469E
S2140049F00133019302ABDE1D324833490122334BAB
S214004A009847002C3CD02F4B9B46012704229A4601
S214004A100423984649464B425941894630785B46BE
S214004A201B68197E3942FCD0197E3942FCD0986248
S214004A30197E1142FCD0514689798C46197E114266
S214004A40FCD0598B0020114205D0598B40460143BB
S214004A5089B259831E206146012903D1996AC90586
S214004A60C90D01E0996AC9B20028E7D12970013C56
S214004A70A4B24D44019B59424B41F618002CCDD1AF
S214004A80104B196802220B7E1342FCD00D480E49CB
S214004A9000220E4B984700200CE0FA200AE00C4853
S214004AA00C498A2252000C4CA0470C48A0470C48E0
S214004AB0A047FF2040B205B03CBC90469946A246AF
S214004AC0AB46F0BD9809002094090020B17D000097
S214004AD0040C01002C0C0100F5900000180C0100DD
S214004AE0D0F0000038B50B4D2C68201C0A4B9847B8
S214004AF01F2318401E3B8340181C8023074AD050B3
S214004B002A68D369002BFCD12368022293432360D2
S214004B10002038BD98090020517B000000E100E02D
S214004B20002A06D082180B780370013001319042BB
S214004B30F9D17047002A04D08218017001309042E3
S214004B40FBD17047031C0278002A07D000200130F2
S214004B5080B201331A78002AF9D100E000207047AD
S214004B6010B5031C002A1AD000780C78A0420AD18F
S214004B70002817D0013A92B201329A1809E0187844
S214004B800C78A04203D0A0420BD301200AE00028F4
S214004B9008D0013301319342F1D1002002E0002019
S214004BA000E0FF2010BDC046F0B583B0041C0E78B0
S214004BB0002E17D04B1C0093181C0B4B98470190E7
S214004BC00A4F00E02C1C651C2378002B09D0B3424A
S214004BD0F8D1281C0099019AB8470028F2D1201C69
S214004BE000E0002003B0F0BD454B0000614B000024
S214004BF0024A13780133DBB2137070477406002044
S214004C007047C04600B583B00120094B9847094855
S214004C1001A9094B9847002806D10221019B194398
S214004C2001910448054B984740B203B000BDC0460A
S214004C308D48000070100000256000003160000004
S214004C4008B50F4B1B78002B11D10E4B1B78032B8E
S214004C5003D00C4B1B78042B09D10B4B984700282C
S214004C600BD10A480A490B4B9847002805D1044A3D
S214004C7013780133DBB21370002040B208BDC04683
S214004C808C0600207C060020595B00007410000093
S214004C90785600003160000000B583B0174B1B78D3
S214004CA0002B04D0154A1378013BDBB21370134B6C
S214004CB01B780020002B1ED1114B1B78032B03D032
S214004CC00F4B1B78042B16D1002301930D480E4979
S214004CD00E4B984700280ED1013001A90C4B98477F
S214004CE0002808D101998B0705D502239943019125
S214004CF00130064B984740B203B000BD8C0600203A
S214004D007C06002074100000214300003160000083
S214004D1025600000F0B55F465646C0B489B08346AD
S214004D208A460192009310AB80CB1E8812AB1D887A
S214004D307F220A4007AB5A70187008225A80002F4C
S214004D4005D05A889219AA1892B25A8006E007AB84
S214004D505A8800998C46624492B25A80554B9847BE
S214004D60041E00D08EE00023059302AAD38004938D
S214004D70049B5A461A430492049A53461B02134352
S214004D80049307AB5B88049A1B04134304930499AB
S214004D9049484A4B9847041E00D085E000230493F8
S214004DA0049A02331343049304994548434B9847A7
S214004DB0041E00D078E00022059202ABDA800633AB
S214004DC01B889BB23F4A93421CD83F4C3C4804A9E0
S214004DD0A047002816D1049B9B0708D43B4805A98A
S214004DE0394B984700280DD0002305930AE002AB04
S214004DF0DA88013292B2DA8006331B889BB2314AD7
S214004E009342E3D9059B002B4DD0059B069307A93B
S214004E104B889BB24B80069808222D4B9847041E61
S214004E2042D1069B08330693019B002B0BD00698B5
S214004E30191C009A264B9847041E35D1069B009AEB
S214004E40944663440693002F0ED0069B009AAD1A34
S214004E50ED1806950698391C321C1D4B9847041E03
S214004E6022D1069BF3180693059B9B000493049A95
S214004E7002231343049304991648104B9847041EC4
S214004E8012D10CE0144815499622FF32144B98476D
S214004E901448154B98470D20144B984704E0144BC4
S214004EA09847041C00E0FD2460B209B00CBC924692
S214004EB09B46F0BD414C00008C10000031600000A5
S214004EC078100000E70300002560000000041500CD
S214004ED0A96000006C100000040C0100B00E010078
S214004EE0A9C70000600C0100C9C80000DDC70000AB
S214004EF0994C0000F0B54F464646C0B487B0A34B69
S214004F0098461F1CA24E35E13B78013BDBB23B7056
S214004F10B047041E00D010E19E4803A99E4B984758
S214004F20041E00D0FCE0039BDB0700D4ECE000206E
S214004F309A4B9847974803A9974B9847041E00D06A
S214004F400CE101230399994303919248944B9847A7
S214004F50041E00D002E18F4803A98F4B9847041E19
S214004F600FD090489049E0225200904B98479048C6
S214004F70904B98470D20904B98470120874B9847B9
S214004F80ECE000228D4B1A70039B9B041B0D994688
S214004F9000D1ACE000230593894805A97E4B9847CD
S214004FA0041E0FD07F488049E72252007F4B984767
S214004FB08448804B98470D207F4B98470120774BBD
S214004FC09847C9E004AD0598291C04227E4B9847F3
S214004FD0041C6B889BB26B8000280FD07148724906
S214004FE0EB225200714B98477848724B98470D2039
S214004FF0714B98470120694B9847ADE004AB5B883E
S2140050009BB299451DD004AB5B884A46D31A042B45
S21400501017DD64486449E022FF32644CA04704A9C7
S2140050204A8892B20B78DBB24978009168484946C4
S214005030A0470D20604B98470120584B9847FA240C
S2140050408AE004AB1B78012B0DD1624B1B68002B4A
S2140050503BD004AA5078C0B25188083989B2059A64
S2140050600832984731E004AB1B78022B0DD15A4B1F
S2140050701B68002B29D004AA5078C0B25188083982
S21400508089B2059A083298471FE004AB1B78042BB8
S2140050900DD1524B1B68002B17D004AA5078C0B213
S2140050A05188083989B2059A083298470DE03D487C
S2140050B03D49FC2252003D4B984749483D4B984796
S2140050C00D203D4B9847FA2446E03C4B1B78002BBE
S2140050D03FD134483449434A344B98474248354BCD
S2140050E098470D20344B9847404B984731E02D4861
S2140050F02D493F4A2D4B98473E482E4B98470D204A
S2140051002D4B9847FE2429E0264827493A4A274C43
S214005110A0473A480399A0470D20274B984718E028
S2140051202048214985229200204B98473448214B3D
S21400513098470D20204B984710E01A481A49314AE4
S2140051401A4B984730481B4B98470D201A4B9847E8
S21400515004E02E4B9847041C002C0BD011482C4919
S2140051602C4A124DA84761B22B48A8470D20124B77
S2140051709847CDE643461B78002B00D0C4E60020B7
S21400518007B00CBC90469946F0BDC0467406002099
S214005190414C000070100000256000008D480000A3
S2140051A031600000040C0100580C0100A9C7000083
S2140051B07C0C0100C9C80000DDC700008406002082
S2140051C084100000A00C01003D600000C40C01002B
S2140051D0DC0C0100700600208006002088060020F7
S2140051E01C0D0100FF010000340D0100054C0000FD
S2140051F007020000580D01000E0200006C0D0100B1
S214005200880D01001A020000AC0D0100994C000048
S214005210BC0E010039020000CC0D0100F0B5474677
S21400522080B482B0061C0F1C151C1C1C002803D062
S214005230002901D0002A13D1002C04D001222D4BC6
S2140052401A702D4B98472D482D492E4A2E4B9847BD
S2140052502E482F4B98470D202E4B9847F42044E0BD
S2140052602D4869462D4B984700283ED1009B98460E
S2140052702B4801A9294B9847002836D1301C391CE9
S2140052802A1C284B984700282FD143469F043F0DE1
S214005290BD420DD919481A49234A1B4CA04723483A
S2140052A0291C3A1CA0470D201A4B9847F4201CE0F6
S2140052B0019B9E4203D37219FF18BA420CD90F48BD
S2140052C00F491B4A104B98471A48114B98470D2018
S2140052D0104B9847F42008E0BA4201D0002C04D0C6
S2140052E00122044B1A70044B984740B202B004BC2B
S2140052F09046F0BD84060020054C0000040C01001A
S2140053003C0C01005E020000A9C70000FC0D010075
S214005310C9C80000DDC7000070100000256000004E
S214005320841000003D600000710200001C0E0100A9
S21400533077020000600E010038B5022808D002D8B7
S214005340012809D014E003280ED0042808D00FE066
S2140053500F4B1960002018E00E4B1960002014E077
S2140053600D4B1960002010E00C4B196000200CE07B
S214005370041C0B480B490C4A0C4DA8470C48211C32
S214005380A8470D200B4B9847F42040B238BDC046C6
S2140053908006002070060020880600207806002080
S2140053A0040C0100480C0100A6020000A9C700007A
S2140053B0A40E0100DDC7000008B50023094A1360EB
S2140053C0094A1360094A1370094A1370094A137090
S2140053D009480A4B9847032009490A4B984700207A
S2140053E008BDC04670060020800600208C060020FF
S2140053F07C06002074060020F14B000035480000B3
S214005400014C00003953000030B59FB0041C151C39
S2140054102C2811D1101C03A904220023854CA04778
S214005420002800D003E1844B1B68002B00D1FEE06F
S2140054302C3003A99847FAE01B2811D1101C03A9A9
S214005440082200237B4CA047002800D0EFE07A4BD0
S2140054501B68002B00D1EAE01B3003A99847E6E062
S214005460062811D1101C03A930220123714CA04735
S214005470002800D0DBE0704B1B68002B00D1D6E084
S214005480063003A99847D2E00E2800D1CFE0362890
S21400549011D1101C03A910220023664CA047002837
S2140054A000D0C4E0644B1B68002B00D1BFE0363050
S2140054B003A99847BBE0332816D103A8002164222D
S2140054C05E4B9847281C03A964220023594CA0472A
S2140054D0002800D0ABE0584B1B68002B00D1A6E09C
S2140054E0333003A99847A2E0382822D1101C03A91C
S2140054F0042200234F4CA047002800D097E05048D5
S214005500504CA0470398FF25291C0140020A2A4058
S214005510030C2B40000E00904B48A0474B48A0477A
S214005520454B1B68002B00D181E0382000219847AE
S2140055307DE0112816D10022454B1A70281C03A9BD
S214005540043200233B4CA047002870D103AB1A78E6
S214005550404B1A70384B1B68002B68D0113003A9DB
S214005560984764E013280FD1101C03A92C220023AF
S214005570304CA04700285AD12F4B1B68002B56D022
S214005580133003A9984752E004280FD1101C1CA919
S21400559004220023274CA047002848D1264B1B682E
S2140055A0002B44D004301CA9984740E079280FD13E
S2140055B0101C1CA9042200231E4CA047002836D12C
S2140055C01D4B1B68002B32D079301CA998472EE063
S2140055D009280FD1101C03A964220123154CA047EB
S2140055E0002824D1144B1B68002B20D0093003A9B7
S2140055F098471CE02A280FD1101C03A90422012377
S2140056000C4CA047002812D10B4B1B68002B0ED069
S2140056102A3003A998470AE00F4810498D22520005
S214005620084DA8470E48211CA8470848A8471FB0A1
S21400563030BDC0461D52000090060020354B0000CD
S214005640140F0100F5900000200F0100D0F00000BC
S2140056509406002095060020040C0100CC0E0100E4
S214005660400F010010B5041E0BD14D484D493422A1
S214005670FF324D4CA0474D48A0474D48A047F42365
S2140056808CE04C4B9847002804D0201C494B984788
S21400569020280BD9424843499D225200424CA0473D
S2140056A04548A0474248A047F42377E02123E35C1F
S2140056B00D2B0BD93A483B494222FF323A4CA047C1
S2140056C03E48A0473A48A047F42367E04123E35CFE
S2140056D0002B13D14233E35C002B0FD14333E35C42
S2140056E0002B0BD12E482F49A52252002E4CA04746
S2140056F03348A0472E48A047F4234FE03F23E35CFF
S214005700012B4AD0032B3CD11F33E35C013B032B18
S2140057100BD9234823495A22FF32234CA047294855
S214005720A0472348A047F42338E02323E35C102255
S21400573093430A2B0BD01A481A495332FF321A4C9D
S214005740A0472148A0471A48A047F42326E024345F
S214005750002C0AD0201C174B9847002805D0201C88
S214005760144B984700231A2818D90D480D496A2269
S214005770FF320D4CA0471548A0470D48A047F4231C
S2140057800CE007480749B8225200074CA0471048CB
S214005790A0470748A047F42300E0002358B210BDF6
S2140057A0040C0100D80E0100F5900000540F010013
S2140057B0D0F00000454B0000680F0100780F010094
S2140057C0840F01009C0F0100B00F0100C40F010000
S2140057D0D80F010010B5002818D002680D4B1A60CB
S2140057E000220D4B1A7000200C4B9847041E0ED159
S2140057F000200B4B9847041E04D1012009490A4B90
S214005800984704E00020094B984700E0F42460B273
S21400581010BDC046900600209406002015610000CA
S214005820B95300000954000039530000C562000057
S21400583008B5014B984708BDF54E0000F0B5574631
S2140058404E46C0B4A3B005900C1C171C1E1C2AABF9
S2140058501B889A462BAB1B789946012A17D0002E38
S21400586009D0301C5C4B9847002804D0301C5A4B9B
S214005870984740280BD959485949C222FF32594CFB
S214005880A0475948A0475948A047F4209EE0631E09
S2140058901F2B0BD951485249E4225200514CA047C5
S2140058A05348A0475148A047F4208FE053460D2B9D
S2140058B00DD9FF2B0BD049484949D222FF32494C1B
S2140058C0A0474C48A0474948A047F4207EE007ADD3
